:100000000C9446000C9465000C9465000C946500FB
:100010000C9465000C9465000C9465000C946500CC
:100020000C9465000C9465000C9465000C946500BC
:100030000C9465000C9465000C9465000C946500AC
:100040000C9465000C9465000C9478040C94A8043E
:100050000C9465000C9465000C9465000C9465008C
:100060000C9465000C9465000C9465000C9465007C
:100070000C9465000C9465000C9465000C9465006C
:100080000C9465000C9465000C94650011241FBE4F
:10009000CFEFD0E1DEBFCDBF11E0A0E0B1E0EEE2F6
:1000A000F6E100E00BBF02C007900D92A830B10747
:1000B000D9F711E0A8E0B1E001C01D92A43AB10760
:1000C000E1F70E9406030C94160B0C940000CF93EA
:1000D000DF93CDB7DEB725970FB6F894DEBF0FBE1E
:1000E000CDBF9A8389837C836B834D83E981FA81B9
:1000F0008B819C8191838083E981FA811482E981DB
:10010000FA8113828D818150E981FA818283E981AC
:10011000FA81158225960FB6F894DEBF0FBECDBFCB
:10012000DF91CF910895CF93DF93CDB7DEB72597B9
:100130000FB6F894DEBF0FBECDBF9B838A83EA81E2
:10014000FB818581882319F41D821C822EC01982AF
:10015000EA81FB8120813181EA81FB8184819927B9
:10016000F901E80FF91F80818983EA81FB8184818D
:100170008F5FEA81FB818483EA81FB818481EA814C
:10018000FB819281692F0E94D30A892FEA81FB812A
:100190008483EA81FB8185818150EA81FB818583AB
:1001A0008981282F33273D832C838C819D8125963F
:1001B0000FB6F894DEBF0FBECDBFDF91CF9108958B
:1001C000CF93DF93CDB7DEB725970FB6F894DEBF98
:1001D0000FBECDBF9A8389836B83E981FA819281B7
:1001E000E981FA818581981719F41D821C822CC03F
:1001F000E981FA8120813181E981FA81838199271E
:10020000F901E80FF91F8B818083E981FA818381ED
:100210008F5FE981FA818383E981FA818381E981B2
:10022000FA819281692F0E94D30A892FE981FA818C
:100230008383E981FA8185818F5FE981FA818583F2
:1002400081E090E09D838C838C819D8125960FB603
:10025000F894DEBF0FBECDBFDF91CF910895CF934D
:10026000DF93CDB7DEB7A2E2B0E0E2E2F0E080815A
:10027000806F8C93A1E6B0E0E1E6F0E080818E60D3
:100280008C93A2E6B0E0E2E6F0E080818D7F8C9373
:10029000A2E6B0E0E2E6F0E080818D7F8C93E3E2BD
:1002A000F0E080E280830E946E010E946E010E9455
:1002B0006E0188E20E94790288E20E94790288E257
:1002C0000E94790282E00E94790281E00E94790214
:1002D0008FE00E947902DF91CF910895CF93DF9351
:1002E000CDB7DEB7A4970FB6F894DEBF0FBECDBF73
:1002F00080E090E0A0ECB0E48B8F9C8FAD8FBE8F40
:1003000020E030E04AEF54E46B8D7C8D8D8D9E8D26
:100310000E949906DC01CB0189A39AA3ABA3BCA3DD
:1003200020E030E040E85FE369A17AA18BA19CA1C5
:100330000E94230888230CF005C081E090E098A378
:100340008F8F1AC020E03FEF4FE757E469A17AA1F1
:100350008BA19CA10E94B70718160CF003C018A22D
:100360001F8E0AC069A17AA18BA19CA10E94E804FA
:10037000DC01CB0198A38F8F8F8D98A19A8F898FE5
:10038000898D9A8D0197F1F79A8F898FA2E6B0E057
:10039000E2E6F0E0808188608C9380E090E0A0EA63
:1003A000B0E48F87988BA98BBA8B20E030E04AEFBE
:1003B00054E46F85788989899A890E949906DC01BD
:1003C000CB018D8B9E8BAF8BB88F20E030E040E867
:1003D0005FE36D897E898F89988D0E942308882329
:1003E0000CF005C081E090E09C8B8B8B1AC020E064
:1003F0003FEF4FE757E46D897E898F89988D0E9482
:10040000B70718160CF003C01C8A1B8A0AC06D8936
:100410007E898F89988D0E94E804DC01CB019C8B3A
:100420008B8B8B899C899E878D878D859E85019777
:10043000F1F79E878D87A2E6B0E0E2E6F0E08081EA
:10044000877F8C9380E090E0A0E8BFE38B839C8360
:10045000AD83BE8320E030E04AEF54E46B817C81C1
:100460008D819E810E949906DC01CB0189879A8744
:10047000AB87BC8720E030E040E85FE369857A85A0
:100480008B859C850E94230888230CF005C081E0A1
:1004900090E098878F831AC020E03FEF4FE757E442
:1004A00069857A858B859C850E94B70718160CF0A4
:1004B00003C018861F820AC069857A858B859C8552
:1004C0000E94E804DC01CB0198878F838F81988597
:1004D0009A83898389819A810197F1F79A83898325
:1004E000A4960FB6F894DEBF0FBECDBFDF91CF91BB
:1004F0000895CF93DF93CDB7DEB721970FB6F89469
:10050000DEBF0FBECDBF8983A2E6B0E0E2E6F0E039
:1005100080818D7F8C93E3E2F0E090EF89818923E5
:1005200080830E946E01E3E2F0E089818295807F02
:1005300080830E946E0121960FB6F894DEBF0FBE35
:10054000CDBFDF91CF910895CF93DF93CDB7DEB7C5
:1005500021970FB6F894DEBF0FBECDBF8983A2E608
:10056000B0E0E2E6F0E0808182608C93E3E2F0E0CC
:1005700090EF8981892380830E946E01E3E2F0E09D
:1005800089818295807F80830E946E0121960FB6BB
:10059000F894DEBF0FBECDBFDF91CF910895CF930A
:1005A000DF93CDB7DEB722970FB6F894DEBF0FBE4C
:1005B000CDBF89836A838A818031F8F48981843050
:1005C00008F01BC08981823030F089818250898394
:1005D0008A81805F8A8389819927002496958795EF
:1005E0000794969587950794982F802D982F8A8148
:1005F000982B80E8892B0E94790222960FB6F894F6
:10060000DEBF0FBECDBFDF91CF910895CF93DF93B3
:10061000CDB7DEB7A5970FB6F894DEBF0FBECDBF3E
:1006200080E090E0AAEFB3E48B8F9C8FAD8FBE8FFC
:1006300020E030E04AEF54E46B8D7C8D8D8D9E8DF3
:100640000E949906DC01CB0189A39AA3ABA3BCA3AA
:1006500020E030E040E85FE369A17AA18BA19CA192
:100660000E94230888230CF005C081E090E098A345
:100670008F8F1AC020E03FEF4FE757E469A17AA1BE
:100680008BA19CA10E94B70718160CF003C018A2FA
:100690001F8E0AC069A17AA18BA19CA10E94E804C7
:1006A000DC01CB0198A38F8F8F8D98A19A8F898FB2
:1006B000898D9A8D0197F1F79A8F898F80E090E06C
:1006C000AAEFB3E48F87988BA98BBA8B20E030E038
:1006D0004AEF54E46F85788989899A890E9499063E
:1006E000DC01CB018D8B9E8BAF8BB88F20E030E08F
:1006F00040E85FE36D897E898F89988D0E94230889
:1007000088230CF005C081E090E09C8B8B8B1AC095
:1007100020E03FEF4FE757E46D897E898F89988D00
:100720000E94B70718160CF003C01C8A1B8A0AC067
:100730006D897E898F89988D0E94E804DC01CB0148
:100740009C8B8B8B8B899C899E878D878D859E85C5
:100750000197F1F79E878D8780E090E0AAEFB3E4E0
:100760008B839C83AD83BE8320E030E04AEF54E46A
:100770006B817C818D819E810E949906DC01CB0179
:1007800089879A87AB87BC8720E030E040E85FE349
:1007900069857A858B859C850E94230888230CF0C7
:1007A00005C081E090E098878F831AC020E03FEF7A
:1007B0004FE757E469857A858B859C850E94B7074A
:1007C00018160CF003C018861F820AC069857A8546
:1007D0008B859C850E94E804DC01CB0198878F8380
:1007E0008F8198859A83898389819A810197F1F70E
:1007F0009A8389830E942F0183E390E00E94120470
:10080000789400C00E946C048DA38DA18823D1F33D
:100810008DA10E94A4028DA10E944C048DA10E9472
:100820004C04F0CFCF93DF93CDB7DEB722970FB64E
:10083000F894DEBF0FBECDBF9A838983E0E9F0E074
:1008400089819A81892F99278083E9E2F0E0898163
:100850008083EAE2F0E088E98083E5E9F0E08EE079
:10086000808384E191E028E031E040E8BC01C901E7
:100870000E94670084E991E02EE031E040E1BC0194
:10088000C9010E94670022960FB6F894DEBF0FBE22
:10089000CDBFDF91CF910895CF93DF93CDB7DEB772
:1008A00021970FB6F894DEBF0FBECDBF89838EE0CF
:1008B00091E069810E94E000AAE2B0E0EAE2F0E0A3
:1008C000808180628C9321960FB6F894DEBF0FBEB4
:1008D000CDBFDF91CF910895CF93DF93CDB7DEB732
:1008E00088E091E00E9493009927DF91CF910895CD
:1008F0001F920F920FB60F9211242F933F934F9395
:100900005F936F937F938F939F93AF93BF93EF9377
:10091000FF93CF93DF93CDB7DEB7ECE2F0E0208119
:1009200088E091E0622F0E94E000DF91CF91FF917B
:10093000EF91BF91AF919F918F917F916F915F9157
:100940004F913F912F910F900FBE0F901F901895D0
:100950001F920F920FB60F9211240F931F932F9394
:100960003F934F935F936F937F938F939F93AF9337
:10097000BF93EF93FF93CF93DF93CDB7DEB7809113
:100980001301882341F4AAE2B0E0EAE2F0E08081BA
:100990008F7D8C9308C00CE210E08EE091E00E9405
:1009A0009300F8018083DF91CF91FF91EF91BF9188
:1009B000AF919F918F917F916F915F914F913F91F7
:1009C0002F911F910F910F900FBE0F901F901895B0
:1009D000EF92FF920F931F937B018C0120E030E098
:1009E00040E05FE40E94ED0788237CF020E030E0E7
:1009F00040E05FE4C801B7010E943B060E9459082D
:100A0000605070408040904804C0C801B7010E9407
:100A100059081F910F91FF90EF900895A0E0B0E06A
:100A2000E4E1F5E00C94E30AFC016A019081923064
:100A300008F41BC1DB018C91823080F0943061F4AA
:100A4000843009F012C19181EB018981981709F472
:100A50000CC1E0E0F1E009C1843011F4FB0105C1F3
:100A6000823091F4923009F000C1EA01DF0188E0A0
:100A70000D9009928150E1F78181FB0191818923D9
:100A8000E6018983F601F1C0923041F36280738000
:100A9000EB018A809B80E480F580068117812C81A0
:100AA0003D814E815F815301A818B908C501B7FC8B
:100AB000ABC080970CF457C0861497040CF4BEC0EA
:100AC0003401EE24FF2487019181FB018181981775
:100AD00009F4A6C0992309F49CC02E193F09400BC4
:100AE000510B57FDB0C0E60119827B826A82F60184
:100AF0002483358346835783E6012C813D814E81D3
:100B00005F8179018A01DA01C9010197A109B1095F
:100B10008F5F9F4FAF4FBF43F8F4E6016A817B813F
:100B2000A8019701220F331F441F551F61507040C9
:100B300079018A01DA01C9010197A109B1098F5F21
:100B40009F4FAF4FBF4360F3E6017B836A83F6019B
:100B5000248335834683578383E0D6018C9357FDE6
:100B600039C0F60182C086149704B4F4C0E0D0E026
:100B7000DA01C90181709070A070B07056954795E8
:100B800037952795282B392B4A2B5B2B2196AC16B2
:100B9000BD0671F78A0C9B1C681479040CF094CF85
:100BA000C0E0D0E05401A618B708D801C701817091
:100BB0009070A070B07016950795F794E794E82AA6
:100BC000F92A0A2B1B2B2196AC16BD0671F76A0C6D
:100BD0007B1C7ACFDA01C901B695A79597958795C1
:100BE0002170307040705070282B392B4A2B5B2BB2
:100BF000E6012C833D834E835F838A819B8101962E
:100C00009B838A83F60131C0882799278A199B091B
:100C100050CFE21AF30A040B150BA801970161CF1C
:100C2000E60199837B826A822E0D3F1D401F511F72
:100C3000F60124833583468357838ECF20E030E04E
:100C400040E050E041CF81E0E60189837B826A8207
:100C500050954095309521953F4F4F4F5F4FF6018E
:100C6000248335834683578347CFCF01EEE0CDB74A
:100C7000DEB70C94FF0AA0E2B0E0E1E4F6E00C94E9
:100C8000EB0A69837A838B839C832D833E834F8316
:100C9000588789E1E82EF12CEC0EFD1EB701CE013C
:100CA00001960E94CB098E010F5E1F4FB801CE0145
:100CB00005960E94CB098A8991E089278A8BAE012B
:100CC000475F5F4FB801C7010E940E050E94A90847
:100CD000E6E0A0960C94070BA0E2B0E0E2E7F6E0B5
:100CE0000C94EB0A69837A838B839C832D833E83E8
:100CF0004F83588799E1E92EF12CEC0EFD1EB701C8
:100D0000CE0101960E94CB098E010F5E1F4FB801E4
:100D1000CE0105960E94CB09AE01475F5F4FB80137
:100D2000C7010E940E050E94A908E6E0A0960C9457
:100D3000070BA0E2B0E0EFE9F6E00C94DF0A69836C
:100D40007A838B839C832D833E834F8358878E01C8
:100D5000075E1F4FB801CE0101960E94CB09F1E159
:100D6000EF2EF12CEC0EFD1EB701CE0105960E9470
:100D7000CB09898D823078F09989923040F420E057
:100D80009A8D8A89981321E02A8BB701E9C08430B3
:100D900051F4923061F020E09A8D8A89981321E015
:100DA0002A8FB801DDC0943029F4823041F760E029
:100DB00071E0D6C0823079F3923009F32D8D3E8DEB
:100DC0004F8D58A18D899E89AF89B88D22243324F7
:100DD0002101AA24BB246501EE24FF24870160E0E1
:100DE00070E00DC06F5F7F4F6032710599F1880F21
:100DF000991FAA1FBB1F569547953795279520FF2A
:100E000019C0280E391E4A1E5B1E66247724430132
:100E1000281639064A065B0628F4E1E06E2E712C8E
:100E2000812C912CAE0CBF1CC01ED11EA60CB71C71
:100E3000C81CD91CEE0CFF1C001F111FB7FFD2CF1E
:100E4000E1E06E2E712C812C912CE628F7280829E0
:100E50001929C8CF8B8D9C8D2B893C89820F931FBC
:100E600002969C878B871A869A8D8A89981711F02B
:100E700081E08A87D7FE17C08B859C85A0FE0CC0B9
:100E8000569447943794279420E030E040E050E8AF
:100E9000222A332A442A552AD694C794B794A79471
:100EA00001969C878B8730E0A31630E0B30630E0D4
:100EB000C30630E4D30618F58B859C850EC0220C42
:100EC000331C441C551C019720E0A21620E0B206FA
:100ED00020E0C20620E4D20680F4AA0CBB1CCC1C85
:100EE000DD1C57FEECCF31E0632E712C812C912C50
:100EF000A628B728C828D928E2CF9C878B87D60197
:100F0000C5018F779070A070B07080349105A105F5
:100F1000B10551F0AD86BE86CF86D88A83E0898739
:100F2000BE01675F7F4F1CC0A7FCF4CF21143104C2
:100F30004104510479F380E490E0A0E0B0E0A80E11
:100F4000B91ECA1EDB1E80E8682E8FEF782E8FEF49
:100F5000882E8FEF982EA620B720C820D920DACF70
:100F6000CB010E94A908E2E1A0960C94FB0AA8E13B
:100F7000B0E0EDEBF7E00C94EB0A69837A838B83A6
:100F80009C832D833E834F83588781E1E82EF12C8B
:100F9000EC0EFD1EB701CE0101960E94CB098E0119
:100FA000075F1F4FB801CE0105960E94CB098989C2
:100FB000823018F42FEF3FEF0BC089858230D0F3D9
:100FC000B801C7010E946A0A282F332727FD3095F0
:100FD000C901E6E068960C94070BA8E1B0E0E3EFE6
:100FE000F7E00C94EB0A69837A838B839C832D83CF
:100FF0003E834F83588781E1E82EF12CEC0EFD1ED5
:10100000B701CE0101960E94CB098E01075F1F4FE9
:10101000B801CE0105960E94CB098989823018F467
:101020002FEF3FEF0BC089858230D0F3B801C701A5
:101030000E946A0A282F332727FD3095C901E6E070
:1010400068960C94070BA8E1B0E0E9E2F8E00C9494
:10105000EB0A69837A838B839C832D833E834F8342
:10106000588781E1E82EF12CEC0EFD1EB701CE0170
:1010700001960E94CB098E01075F1F4FB801CE0178
:1010800005960E94CB098989823018F089858230C3
:1010900018F421E030E008C0B801C7010E946A0AD4
:1010A000282F332727FD3095C901E6E068960C9478
:1010B000070BACE0B0E0EFE5F8E00C94EF0A6983D1
:1010C0007A838B839C83BE016B5F7F4FCE01019639
:1010D0000E94CB098D81823061F0823050F08430E3
:1010E00069F48E81882359F52FEF3FEF4FEF5FE7CB
:1010F0002AC020E030E040E050E025C02F81388554
:1011000037FDF7CF2F31310564F78EE190E0821B78
:10111000930B29853A854B855C8504C05695479588
:10112000379527958A95D2F78E81882361F050955F
:101130004095309521953F4F4F4F5F4F04C020E0C1
:1011400030E040E050E8CA01B901E2E02C960C948E
:101150000B0B4F925F926F927F928F929F92AF9202
:10116000BF92DF92EF92FF920F931F9320E030E047
:1011700040E050E0FC01E480F58006811781D180D9
:101180008081823038F4D801C701A061AF77B07098
:101190006FEFD9C0843009F46EC0823009F471C099
:1011A000E114F1040105110509F46BC082819381FA
:1011B0006FEF823896070CF06AC062E87FEF681B19
:1011C000790B6A3171050CF080C047015801062E79
:1011D00004C0B694A794979487940A94D2F74424B1
:1011E0005524320181E090E0A0E0B0E004C0880F17
:1011F000991FAA1FBB1F6A95D2F70197A109B109D0
:10120000E822F9220A231B23E114F1040105110548
:1012100029F061E0462E512C612C712C850174015E
:10122000E428F52806291729D801C7018F7790707F
:10123000A070B07080349105A105B10509F457C0C4
:10124000D801C701CF96A11DB11D60E070E08030CC
:10125000E0E09E07E0E0AE07E0E4BE0710F061E0EA
:1012600070E027E0B695A795979587952A95D1F7D1
:10127000AF77B07068C080E090E0A0E0B0E06FEFC2
:1012800062C080E090E0A0E0B0E060E05CC0803848
:1012900091058CF7BC0161587F4FD801C7018F774A
:1012A0009070A070B07080349105A105B105A1F0D7
:1012B0008FE390E0A0E0B0E0E80EF91E0A1F1B1FCC
:1012C00017FD28C0D801C701CCCF60E070E080E0F6
:1012D00090E0A0E0B0E0CCCFE7FEF2CF80E490E079
:1012E000A0E0B0E0E80EF91E0A1F1B1FE9CFE7FCE3
:1012F00018C080E090E060E0E61660E0F60660E08E
:10130000060760E4160710F081E090E0BC01D80108
:10131000C701A7CF16950795F794E7946F5F7F4FA6
:10132000D1CFD801C701805C9F4FAF4FBF4F60E066
:1013300070E08030E0E09E07E0E0AE07E0E4BE074A
:1013400008F48FCF8CCF282F392F9A2F9F77842F97
:101350008078892B962F9795992797958F77482F87
:10136000492B6695852F8078862BD794DD24D794DA
:101370008F77582F5D29CA01B9011F910F91FF90F6
:10138000EF90DF90BF90AF909F908F907F906F9085
:101390005F904F900895FC01DB01208131819281A3
:1013A000492F4F7750E0991F9927991F8381682F04
:1013B000660F692B881F8827881FFD01818366239C
:1013C00009F049C0211531054105510509F470C0E6
:1013D00082E89FEFFD0193838283220F331F441F16
:1013E000551F220F331F441F551F220F331F441F49
:1013F000551F220F331F441F551F220F331F441F39
:10140000551F220F331F441F551F220F331F441F28
:10141000551F83E08C932030F0E03F07F0E04F074A
:10142000F0E45F0790F482E89FEF220F331F441F20
:10143000551F0197203060E0360760E0460760E402
:10144000560798F3FD0193838283FD01248335833E
:101450004683578308956F3F71F1862F99278F57E1
:101460009040FD019383828383E08C93220F331F8E
:10147000441F551F220F331F441F551F220F331FB8
:10148000441F551F220F331F441F551F220F331FA8
:10149000441F551F220F331F441F551F220F331F98
:1014A000441F551F50642483358346835783089512
:1014B00082E08C930895211531054105510519F4F9
:1014C00084E08C93089544FD02C01C92BECF81E05D
:1014D0008C93BBCFEF92FF920F931F93CF93DF9329
:1014E000FC01DB018081823050F09C91923038F019
:1014F000843041F49430B1F08181882381F461E03B
:1015000070E04BC09430E9F18230A1F09230A1F349
:101510006181ED018981681791F0662381F36FEF96
:101520007FEF3BC0EB018981682F77278181681BA2
:10153000710933C0923059F560E070E02EC022810D
:101540003381ED018A819B818217930734F3281739
:1015500039079CF0E480F58006811781FD01248124
:101560003581468157812E153F0540075107A8F266
:10157000E216F30604071507F8F6662309F0BFCF55
:10158000CECFFB018181882309F0B9CFC8CFEB0111
:101590008981882309F0B3CFC2CFCB01E6E0CDB774
:1015A000DEB70C94070B991B79E004C0991F9617BE
:1015B00008F0961B881F7A95C9F7809508952F9299
:1015C0003F924F925F926F927F928F929F92AF92D3
:1015D000BF92CF92DF92EF92FF920F931F93CF9320
:1015E000DF93CDB7DEB7CA1BDB0B0FB6F894DEBFB7
:1015F0000FBECDBF09942A88398848885F846E84DD
:101600007D848C849B84AA84B984C884DF80EE8026
:10161000FD800C811B81AA81B981CE0FD11D0FB62F
:0E162000F894DEBF0FBECDBFED010895FFCFE1
:08162E000000000000000000B4
:00000001FF
